:020000040800F2
:100000000020002099310008953000089730000842
:1000100000000000000000000000000000000000E0
:1000200000000000000000000000000099300008FF
:1000300000000000000000009B3000089D30000818
:10004000E931000800000000A9300008E93100088B
:10005000E9310008E9310008E9310008E931000818
:1000600000000000B9300008C9300008E93100087C
:10007000E9310008E9310008E9310008000000001A
:10008000E93100080000000000000000E93100082C
:1000900000000000E9310008E9310008E9310008FA
:1000A000E9310008E9310008E9310008D9300008D9
:0800B000E93100080000000026
:1000B80010B5064C2378002B07D1054B002B02D036
:1000C800044800E000BF0123237010BDE8010020B0
:1000D8000000000044B10008044B10B5002B03D009
:1000E8000349044800E000BF10BDC04600000000FE
:1000F800EC01002044B100080023C25C0133002A4F
:10010800FBD1581E7047000002B4714649084900E7
:10011800095C49008E4402BC7047C04603B471466E
:10012800490840004900095E49008E4403BC7047F5
:10013800002243088B4274D303098B425FD3030A1E
:100148008B4244D3030B8B4228D3030C8B420DD331
:10015800FF22090212BA030C8B4202D312120902BF
:1001680065D0030B8B4219D300E0090AC30B8B42FD
:1001780001D3CB03C01A5241830B8B4201D38B03AB
:10018800C01A5241430B8B4201D34B03C01A524150
:10019800030B8B4201D30B03C01A5241C30A8B4293
:1001A80001D3CB02C01A5241830A8B4201D38B027E
:1001B800C01A5241430A8B4201D34B02C01A524122
:1001C800030A8B4201D30B02C01A5241CDD2C30994
:1001D8008B4201D3CB01C01A524183098B4201D310
:1001E8008B01C01A524143098B4201D34B01C01AFB
:1001F800524103098B4201D30B01C01A5241C30873
:100208008B4201D3CB00C01A524183088B4201D3E1
:100218008B00C01A524143088B4201D34B00C01ACD
:100228005241411A00D20146524110467047FFE739
:1002380001B5002000F0F0F802BDC0460029F7D053
:1002480076E7704703460B437FD4002243088B426E
:1002580074D303098B425FD3030A8B4244D3030B45
:100268008B4228D3030C8B420DD3FF22090212BA0A
:10027800030C8B4202D31212090265D0030B8B4286
:1002880019D300E0090AC30B8B4201D3CB03C01A70
:100298005241830B8B4201D38B03C01A5241430B4B
:1002A8008B4201D34B03C01A5241030B8B4201D33B
:1002B8000B03C01A5241C30A8B4201D3CB02C01AA6
:1002C8005241830A8B4201D38B02C01A5241430A1E
:1002D8008B4201D34B02C01A5241030A8B4201D30D
:1002E8000B02C01A5241CDD2C3098B4201D3CB01B4
:1002F800C01A524183098B4201D38B01C01A524163
:1003080043098B4201D34B01C01A524103098B4266
:1003180001D30B01C01A5241C3088B4201D3CB0051
:10032800C01A524183088B4201D38B00C01A524134
:1003380043088B4201D34B00C01A5241411A00D2E4
:1003480001465241104670475DE0CA0F00D049424D
:10035800031000D34042534000229C4603098B42BD
:100368002DD3030A8B4212D3FC22890112BA030A45
:100378008B420CD3890192118B4208D389019211C7
:100388008B4204D389013AD0921100E08909C3094C
:100398008B4201D3CB01C01A524183098B4201D34E
:1003A8008B01C01A524143098B4201D34B01C01A39
:1003B800524103098B4201D30B01C01A5241C308B1
:1003C8008B4201D3CB00C01A524183088B4201D320
:1003D8008B00C01A5241D9D243088B4201D34B003B
:1003E800C01A5241411A00D20146634652415B107D
:1003F800104601D34042002B00D54942704763465E
:100408005B1000D3404201B5002000F005F802BDA2
:100418000029F8D016E770477047C0468446100098
:1004280062468C461900634600E0C0461FB501F0DD
:10043800DDF8002801D40021C8421FBD10B501F025
:100448002DF84042013010BD10B501F0CFF800285A
:1004580001DB002010BD012010BDC04610B501F021
:10046800C5F8002801DD002010BD012010BDC046E0
:1004780010B501F055F8002801DC002010BD01205E
:1004880010BDC04610B501F04BF8002801DA002075
:1004980010BD012010BDC04670B500220C4B0400F1
:1004A8000D00FFF7EFFF002804D12000290001F01C
:1004B80063FF70BD064B00222000290001F0BCFB41
:1004C80001F05AFF80231B069C466044F1E7C046B2
:1004D8000000E04143025B0AF0B54F4646469946A4
:1004E800D646C30F45009846C0B54B460F1C2D0E87
:1004F80000D1CBE0FF2D00D1CFE08022DB00D20479
:100508001A430023914600269A467F3D7C027B00D1
:10051800640A1B0EFF0F002B00D1A9E0FF2B11D09E
:100528008022E400D204144342467F3B5B197A40A0
:100538000020D2B25D1C0A2E13DD3A000B2E47D0E4
:1005480047463FE02B00FF33002C1ED10222164302
:10055800424601357A40D2B2FF350A2E00DDE4E08A
:100568000220022E1CDC013E012E42D802283DD07A
:10057800012866D100200021C0050843D207104396
:10058800E0BCBA46B146A846F0BD0322164342462F
:1005980001357A40D2B2FF350A2E00DDE4E00320AF
:1005A8000121B140A626F60031420AD19026B600B4
:1005B800314216D1B93EFF3E0E421AD0A1468246BC
:1005C80000E0170053463A00022B0FD04C46504625
:1005D8000328CDD18021C90321434902FF20490ABC
:1005E800CAE780210022FF20C903C5E7FF200021B8
:1005F800C2E7200C49462404240C27000E0C0904E9
:10060800090C74434F4346434843390C00190918F1
:100618008C4203D980204002844666443F04080483
:100628003F0CC0198401671EBC41090C800E891952
:10063800044389010C43090171D5012361081C4059
:100648000C432B007F33002B51DD610704D00F21B1
:100658002140042900D00434210103D5434B1C4018
:100668002B008033FE2BC1DCA101490AD8B283E7F5
:10067800002C2CD1012342461E432B007A40012036
:10068800D2B25D1C0A2E00DD57E76AE7002B10D1B5
:100698000123042600259A4638E7002B04D10223BB
:1006A8000826FF259A4631E703230C26FF259A469C
:1006B8002CE7484601F0BAFF4A46431F76259A4080
:1006C80000236D42914600269A462D1A1EE7200007
:1006D80001F0ACFF4246431F9C402B1A763B7A4000
:1006E8000020D2B25D1C0A2E00DD26E739E7012181
:1006F800CB1A1B2B00DD3DE79E352100AC40D940CD
:10070800631E9C4121434B0704D00F230B40042B4D
:1007180000D004314B0104D5012000212CE71D0035
:100728008FE789010020490A26E702230F2E0CD102
:1007380080214B46C9030B420DD00C420BD12143FB
:1007480049023A00FF20490A16E70B2E00D0F7E6C7
:10075800A1469A4636E780214B46C9031943490208
:100768004246FF20490A07E70323DFE7FFFFFFF7B9
:1007780070B5041E0ED001F059FF9E2301001B1A0C
:10078800962B0CDC08282CD008398C406402640AAB
:10079800D8B201E000200024C005204370BD992B89
:1007A8000ADD020020001B3290400200501E8241E8
:1007B8000520401AC4401443052916DC22000F48BE
:1007C8000240650709D00F252C40042C05D00432BF
:1007D800540102D59F2302405B1A9201540AD8B2F1
:1007E800DAE764029620640AD6E74A1F944022009A
:1007F800024802406507F0D0E5E7C046FFFFFFFB6F
:10080800F0B54F464646D6460400C0B51F000B0358
:1008180010004E005B0ACD0F610F7A001943E30008
:100828003C03FF0FBC46640A470F2743760D520D61
:10083800C000B9468046B71A654500D19BE0002F35
:1008480000DC84E0002A00D1BEE0C84A964200D10C
:1008580024E180224C4612041443A146382F00DDBF
:1008680067E11F2F00DDD6E120224C46D21B9440C1
:10087800A2464446FC40200054460443404690406B
:10088800421E90414A46FA400443891A1C1BA3425F
:10089800924152428B1A9A4653461B0200D4D4E026
:1008A80053465A02530A9A465346002B00D104E194
:1008B800504601F0BBFE0300083B20222000D21A5C
:1008C8005146D040994002009C400A43B34200DAA6
:1008D80002E19B1B591C1F2900DDA7E02023100003
:1008E80026005B1A9C409840CE40CA40631E9C413B
:1008F8003043924600260443630709D00F23234060
:10090800042B05D0231DA342A4416442A2441C0029
:1009180053461B0200D49BE0944B01369E4200D103
:10092800B8E053469249E4080B4019005B0723439B
:1009380072054C02240B520D1205ED0722432A437F
:1009480018001100E0BCBA46B146A846F0BD002F19
:1009580048D0971B002E00D00EE10C001C4300D19C
:10096800B7E17C1E012F00D126E2804DAF4200D1B5
:10097800D5E1270007E1002F00DCB2E0002A47D0CC
:100988007A4A964200D189E080224C4612041443E8
:10099800A146382F6BDC1F2F00DC6EE13A00484679
:1009A800203AD0408446202F07D040224846D21B08
:1009B800904002004046104380464046421E904107
:1009C80062460400144357E04A46024300D103E15B
:1009D8007A1E012F00D193E1644CA74200D18AE12D
:1009E80017003BE7634C721C224200D0E0E00A008B
:1009F8001A43002E00D074E1002A00D1D0E14A4603
:100A0800024300D0E3E14A07DB081343C90829E0A1
:100A18004A46024300D17DE17A1E012F00D1E0E071
:100A2800524CA74200D166E11700B2E710001F3B05
:100A3800D840202903D040235B1A9A401443631EF0
:100A48009C41002300269A460443630700D055E7DB
:100A58005246E3085207134352463700D108434A27
:100A680097421FD009037A050C0B520D64E74246E2
:100A78004C461443621E9441E4189C4292415242EF
:100A880092468A4453461B02DFD5384B01369E42B4
:100A980000D0B3E03200002400234DE74A07DB080A
:100AA8001343C9081A000A4300D100E28024240332
:100AB8000C4324032D4A240B3EE7200001F0B6FD29
:100AC800030018331F2B00DCF7E6220008388240A9
:100AD8000024B34200DBFCE6F61A254B1A40924686
:100AE8000AE7002F2BD0971B002E00D1B8E01F4C2F
:100AF800A24200D11CE1802424042143382F00DDC8
:100B08001EE11F2F00DD9EE120260C00F61B1800B9
:100B1800B340B440F8405E1EB341F94004431C435F
:100B28008944444444459B415B424B449A461600E1
:100B3800A8E742464C461443621E9441A6E60D4C73
:100B4800721C224200D0A8E00A001A43002E00D0EE
:100B58000AE1002A00D15EE14A46024300D061E181
:100B68004A07DB081343C9087CE7C046FF070000B3
:100B7800FFFF7FFFFE070000CF4CA24200D1CEE06E
:100B8800802424042143382F5BDC1F2F00DDDCE0A8
:100B980020250C00ED1B1E00AB40AC40FE405D1E46
:100BA800AB413443F9401C434B465B1A99464CE031
:100BB8004A461C1A881AA34292415242924602009F
:100BC8005046121A9246120278D45346234300D054
:100BD8006AE60021002545E74A07DB081343C908F0
:100BE8003DE71C189C429B4149448A465B429A4413
:100BF800534601261B0200D427E702265246AF4B74
:100C080001211A401300214062080A43DC075B08EF
:100C18009A46144370E63A004C46203AD440A4461B
:100C2800202F07D040224846D21B90400200404661
:100C3800104380464046421E9041624604001443D9
:100C480024E619430C00631E9C4143461C1BA04527
:100C58009B4149465B42CB1A9A46654616001BE6FD
:100C68000C001C4300D1C7E07C1E012F00D1F9E025
:100C7800914EB7425CD0270040E720224C464046C0
:100C8800D21B9440F840044340469040421E904195
:100C98004A46FA4004438918EEE6874CA24200D13E
:100CA800F9E6181898429B4149445B42CB18DC0787
:100CB80040085B089A4616000443C6E64246D41A22
:100CC800A04580414B464042591A0B1A9A46654640
:100CD800EAE54B464A46C0085B0765460343D10828
:100CE800BDE6002A00D08EE04B46034317D1802191
:100CF80000250903DAE64A07DB081343C908D1E6E9
:100D08001C1A4A46A3429B41891A5B42CB1A9A464F
:100D18000126C1E54A07DB081343C9089FE6434695
:100D2800D8084B464A465B0765460343D108B9E6EF
:100D38004346D8084B464A465B070343D108B1E609
:100D480019430C00631E9C41EBE63C000D00203C5F
:100D5800E540202F03D04024E41BA1400B431C0096
:100D6800631E9C412C4370E7002AE1D04A460243A7
:100D7800C1D04A07DB0813438022C9081203114275
:100D880008D04846C408144204D143462100DB0871
:100D9800420713435A0FDB005207DB08134381E66F
:100DA8004B46034300D114E74B464A46C0085B074D
:100DB80065460343D10855E6C41AA04580414B4611
:100DC8004042591A0B1A9A466546012664E51C1AD0
:100DD8004A46A34280418A1A4042121A9246120297
:100DE80049D54246D41AA04580414B464042591A3B
:100DF8000B1A9A4665467FE54B464A46C0085B078C
:100E08000343D1082BE64A46DB08024338D14A0798
:100E18001343C90846E64B464A46C0085B070343E6
:100E2800D1081FE61C189C429B4149448A465B42F4
:100E38009A4453461B0200D407E652461F4B01262C
:100E48001A40924601E63C000E00203CE640202F66
:100E580003D04024E41BA1400B431C00631E9C41AB
:100E680034435EE643448342804149448A464042D3
:100E78001C008244BCE65346234300D1A9E6E4E5BE
:100E88004A0713438022C9081203114209D0484671
:100E9800C408144205D1434665462100DB084207D1
:100EA80013435A0FDB00DB0852071343FAE500230C
:100EB800014A1C0040E5C046FF070000FFFF7FFF16
:100EC800F0B557464E464546DE46E0B50C031F00D2
:100ED8004B0081469246050085B0240B5B0DCE0F72
:100EE800002B00D152E1D24A934200D16EE1420F69
:100EF800E40014438022120422439046CD4AC500E0
:100F080093469B440023994600933C037B0050463C
:100F1800240B5B0DFF0F002B00D11AE1C44A93424A
:100F280000D15EE1420FE4002243802424041443EC
:100F3800C04AC10094465A466344D31A9B460020CF
:100F480033007B409A464B460F2B27D8BA4A9B0062
:100F5800D3589F46B246009B022B16D0032B00D1D4
:100F680087E2012B00D0D5E00023002200251B05D5
:100F780013435246D20713432800190005B0F0BCAA
:100F8800BB46B246A946A046F0BD00220025A84BA4
:100F9800EDE7BA46A0460D000090DCE7444500D2D4
:100FA800C4E100D1BFE101235B429C462E004046CC
:100FB8000025E34423020C0E1C431B0C9946230412
:100FC8000A021F0C494600920197FFF737F9020001
:100FD8007A430B04310C804619438A4207D901230E
:100FE8005B429C460919E0448C4200D801E2881A09
:100FF8004946FFF723F9019A360442430904360C9F
:1010080003000E43B24204D93619013BB44200D85A
:10101800E9E1B01A4246009E12041A43330C1F003D
:10102800110C9046029313043204160C32001B0C68
:101038005A4303967B434E437943170CBC469B198E
:1010480063449E4203D980267602B44661441E0C4E
:10105800711816041B04360C9E19884202D312D14B
:10106800B54210D243465A1E009B9C4665441F0059
:101078009D429B415B421B19C018844200D29EE1ED
:1010880000D199E19046AE1BB542AD41401A6D4280
:10109800401B844200D1D2E14946FFF7CFF8019ABC
:1010A8000B044243310C050019438A4200D96CE114
:1010B800881A4946FFF7C2F8019A360442430904E0
:1010C800360C03000E43B24200D953E10398B61A16
:1010D80002002D041D43029F2B041B0C5A437B4323
:1010E8009C46290C4843130C844463447943984232
:1010F80003D98020400284466144180C12041B0462
:10110800120C40189B18864200D200E100D1FBE087
:1011180001231D43494B5B44002B00DCAAE06A070E
:1011280000D03DE1E9084246D20106D54246444B8B
:101138001A4080239046DB005B44424A934200DD1C
:1011480023E742465B05550752020D43120B5B0D20
:101158000DE75146214300D17CE0002C00D1FBE093
:10116800200001F063FA02000B3A1D239B1A524635
:101178000100DA40534608398B408C40190014436B
:10118800314B58449B4683440020D9E6030023434F
:10119800984644D0002C00D1CFE0200001F046FA58
:1011A800010002000B391D235B1A49461000D94083
:1011B800083884400B004D46234398468540234B0E
:1011C8009B1A9B460023994600939EE60200224301
:1011D80090461DD108229B46022300259146009384
:1011E80093E65146214309D102234A461A43184B34
:1011F80091469C4600240220E344A1E603234A4684
:101208001A43134B91469C4651460320E34497E604
:101218000C229B460323A0469146009375E60423BF
:10122800994600239B460133002500936DE6C0468E
:10123800FF07000001FCFFFF68B10008FF03000082
:10124800FFFFFFFEFE070000F30300000DFCFFFF99
:1012580001F8FFFF4A4601231A4391460024012062
:101268006EE6002380229A460025884B12037EE60C
:1012780001256D420122D21A382A00DD74E61F2AA0
:1012880000DCBDE01F214942CB1A4146D9400B0082
:10129800202A04D041467E4A5A4491400D432900F1
:1012A8004A1E9141194307231D0000220D400B429D
:1012B80000D1D0E00F2200230A40042A00D1C7E061
:1012C8000A1D8A42894149425B1811001A0200D45A
:1012D800BEE001230022002549E68022434612038E
:1012E800134208D0144206D122431203BA460D0015
:1012F800664B120B3BE68022434612031A43120345
:10130800B246624B120B32E6002B00D102E7A61957
:101318006A1EA64200D289E0864200D29FE000D130
:10132800AFE01500F4E6A94200D93CE64346DE07E3
:1013380058086B081E43ED073CE601F077F90100F9
:101348000200153120321C2900DC2CE74B460838F6
:1013580083400025984632E701F068F903001A0037
:10136800153220301C2A00DCFFE65446083B0021D9
:101378009C4005E73619013BB44200D9A6E6B242C3
:1013880000D8A3E6831E3619A0E60919013D8C4250
:1013980000D98DE68A4200D88AE6851E091987E6B3
:1013A8000F222A40042A00D1BCE6291DA942AD41DA
:1013B8006D42C908A844B6E6AF4200D962E6814248
:1013C80004D800D05EE6AE4200D85BE602235B425A
:1013D8009C46009BE0449C4665449D429B415B4281
:1013E8001B19C0184FE6B24200D812E6831E361900
:1013F8000FE68A4200D8FAE5831E98460919F6E5F1
:10140800244B28005B4441469D409940D0406B1EC8
:101418009D41434601432943D3404A0700D155E73C
:101428000F220A40042A00D04AE74FE715008642F7
:1014380000D06DE6009A9A4200D069E66AE6164B3B
:101448005B44002B00DC13E701250021A8446AE671
:101458005D075B021A0BC90800230D4387E5009955
:10146800023D4A008A42BF417F423F19F619009265
:10147800DDE78022434612031A431203034B120B83
:1014880075E500999942EAD31500D3E7FF070000F4
:101498003E0400001E040000FF030000F0B54E46A5
:1014A8004546DE4657469046E0B517001A03120B2C
:1014B8000500844619480E034C0091465A00DB0F7C
:1014C8009B46360B640DC90F520D844219D08242D7
:1014D80010D0012094420ED14E450CD10120C445B4
:1014E80009D1594517D0002C05D130002843431E97
:1014F800984100E00120F0BCBB46B246A946A04690
:10150800F0BD330001202B43F5D1A242F3D14B4665
:101518003B43F0D1E2E70020EDE7C046FF070000BB
:10152800F0B54746CE460400180016001B031B0BF7
:101538002D4D4A00994680B543000F03A446B04696
:101548003F0B520DC90F5B0DC00FAA4221D0AB4211
:1015580013D0002A22D13C43002B02D14D462E4302
:1015680022D0002C10D0814222D00220013908401C
:101578000138C0BCB946B046F0BD4D462E4329D10E
:10158800002AF0D13C43EED10028F2D1012040429C
:10159800EFE73D0025431DD19342EED0002BE2D169
:1015A8004C462643DFD1E0E70020002CE1D0DCE701
:1015B8009A420ADCE8DB4F45D7D80ED000204F45C9
:1015C800D7D20029E2D00800D3E74342584140006F
:1015D8000138CEE702204042CBE7C445C5D80020F9
:1015E800C445C6D2EDE7C046FF070000F0B5474640
:1015F800CE460400180016001B031B0B2C4D4A0096
:10160800994680B543000F03A446B0463F0B520DE0
:10161800C90F5B0DC00FAA420DD0AB4210D0002AF3
:1016280027D13C43002B11D14D462E430ED100202B
:10163800002C15D00EE03D00254310D1934218D15F
:101648004D462E430BD1002A02D13C43002C0BD02F
:10165800814214D0022001390840013800E00220FC
:10166800C0BCB946B046F0BD0028F9D101204042BF
:10167800F6E7002BECD14C462643E9D1EAE79A423B
:1016880004DD4342584140000138E9E79A42EBDB68
:101698004F45DFD806D000204F45E1D20029E5D0DC
:1016A8000800DDE7C445D5D80020C445D8D2F5E701
:1016B800FF070000F0B54546DE4657464E46E0B502
:1016C8001F000B031B0B9B464D00CB0F04009146DC
:1016D800984687B06D0D00D1CDE1CE4B9D4200D12B
:1016E800E9E15A46430FD2001343802212041A43F9
:1016F800C3009A46C84B93469C460023002665447F
:1017080000933C037B004846240B5B0DFF0F002B26
:1017180000D189E1BF4A934219D0420FE400224325
:10172800802424041443BC4A00219446424663445E
:101738005B190193019B7A400133C000D2B2029336
:101748000A2E1CDD3A000B2E5ED0474656E049466D
:10175800B04B2143EB18019300292AD180200222A3
:1017680000012B0084461643424663447A40D2B2B5
:1017780002930A2E00DD31E2002000240221022E0D
:1017880026DC013E012E52D802294CD0012900D076
:1017980018E10023002400251B052343D207134327
:1017A8002800190007B0F0BCBB46B246A946A046BF
:1017B800F0BD8021032209012B008C4616434246C6
:1017C80063447A40D2B202930A2E00DD28E2032154
:1017D8000125B540AC46A6266346F600354033429F
:1017E8000BD19026B600334218D1B93EFF3E1E42B7
:1017F8001DD0A3468246009100E0170000993A00E8
:10180800022910D05C4650460329BFD180231B0310
:101818001C43240305007F4B240BBDE780240022D2
:101828007C4B2403B8E7002400257A4BB4E75346E1
:101838001E04360C1F0C3300010C0004000C43433B
:10184800984603007B43994633004B439C464346E6
:101858000D001B0C9A467D43CC44D4440095E145C9
:1018680004D980235B0299464D44009563461B0CBE
:101878001D0063461B049C4643461B041B0C9846EC
:10188800634643440393230C984633002404240CF2
:1018980063439C4623007B43994643465E435F432C
:1018A8004E446346B2461E0C5644B14503D98023C4
:1018B8005B0299464F44330C99463B004B440593D1
:1018C8006346AC461F043F0C3604F619B44463461D
:1018D80004935B461B0C9C465B461F043F0C3B0075
:1018E80043439946634643439A464B4660461B0C1E
:1018F8009B4648437943514459448A4503D9802338
:101908005B029A4650440B0C9A464B461B041B0C30
:1019180099463B0063430904454649449946634652
:101928005C436B439C464B461B0C98466F433F19E0
:1019380047445044BC4203D980235B029846C444C0
:10194800049B009D98464544B542B641734298466B
:101958004B461E04059B3C049946360CA4194C447E
:10196800A14683466E18C1448E428941CB445D46E8
:1019780049426D189C42A441C1459B418345804121
:101988008D4289415B4264421C434042039B494269
:10199800014370023F0C1843E419471EB84164180C
:1019A8006444F60D61023043EC0D6E020C43304383
:1019B800C90100D4F1E00121430801400B43E007CD
:1019C800184364081549029B8C466344002B00DCCD
:1019D80097E0410709D00F210140042905D0011DD6
:1019E80081428041404224180800E10106D5802147
:1019F800C9008C460A4B1C40029B634409498B4230
:101A080000DD10E76107C50864025B050D43240B80
:101A18005B0DC1E6FF07000001FCFFFFFF030000AC
:101A2800FFFFFFFEFE0700004B46234359D0002C62
:101A380000D1A3E0200000F0F9FD010003000B39FC
:101A48001D22521A49461800D1404A460838824099
:101A5800844010000C43744AEB1A9446424663448F
:101A68000193019B7A4001330021D2B202930A2EDE
:101A780000DD67E683E65B4603439A462AD05B4669
:101A8800002B6DD0584600F0D1FD010003000B3942
:101A98001D22521A210018005D46D14008388540A1
:101AA8000A0084402A439346A2465F4D0026ED1A59
:101AB8000023009325E65B4603439A4605D100239D
:101AC8009B460233082600931BE6032382460C2616
:101AD800009316E600239B46013304260025009355
:101AE8000FE64246013301951E43019B7A400133BC
:101AF800002400200121D2B202930A2E00DD21E643
:101B08003DE60121C91A382900DD42E61F2947DDD3
:101B18001F2625007642F31ADD402B00202905D028
:101B28004249029D8C466544AC402043411E884191
:101B3800184307231D000024054003424AD00F2301
:101B480000240340042B42D0031D834280414042BD
:101B58002418180023023AD50123002400251BE687
:101B680000F064FD01000300153120331C298FDDCE
:101B78000838002284409246A34696E700F056FDB6
:101B880001000300153120331C2900DC58E702004E
:101B98004C46083A002094405DE7019B029311E708
:101BA800234B26009C460300029DCB406544AE4073
:101BB8001E430300AB40581E834130001843CC40FD
:101BC8004307C7D00F230340042BBDD1C2E76507E5
:101BD8006402240BC00800230543DDE50025022329
:101BE8000F2E0CD180245B46240323420ED02142C1
:101BF8000CD10C4324033A000E4B240BCCE50B2EDE
:101C080000D0A2E58B46AA460093F7E580245B4600
:101C180024031C43240342465546064B240BBBE5CC
:101C28004D4621000323DBE70DFCFFFF3E040000C7
:101C38001E040000FF070000F0B557464E46454613
:101C4800DE46E0B50D000400190010002B035B0A06
:101C5800620F1A43E3000C03640A470F2743D04C72
:101C68006E00914683B04A00C0009846A246760DA1
:101C7800ED0F520DC90F0190A24200D1B9E0012425
:101C880061408B468D4200D18DE0B41AA446002CE9
:101C980000DCB7E0002A00D1CBE0C14A964200D16F
:101CA80086E18022120417436246382A00DDA4E147
:101CB8001F2A00DD1DE2614620223C00521A010065
:101CC80090409440421E90416246A0466446D740E8
:101CD8004A46E1404446D21B91460C4304431C1B30
:101CE800A34292414B4652429B1A9A4653461B02C4
:101CF80000D42BE153465A02530A9A465346002B06
:101D080000D166E1504600F091FC0300083B202218
:101D18002000D21A5146D040994002009C400A4304
:101D28009E4200DD64E19B1B591C1F2900DDFEE07B
:101D38002023100026005B1A9C409840CE40CA40E1
:101D4800631E9C413043924600260443630709D032
:101D58000F232340042B05D0231DA342A441644232
:101D6800A2441C0053461B0200D4F2E08C4B0136FF
:101D78009E4200D10FE153468A49E4080B401900FE
:101D88005B07234372054C02240B520D12052243B4
:101D9800ED072A431800110003B0F0BCBB46B24659
:101DA800A946A046F0BDB41AA446002C59DD002A65
:101DB80000D1B0E0564500D1FAE080221204174362
:101DC8006246382A00DDD4E01F2A00DCC0E1390071
:101DD800203AD1406246202A06D064464022121B8F
:101DE8003C00944004430194019C621E94410C43BE
:101DF800C3E03C0004432BD08B468D422ED06A4C66
:101E0800A446B4446446002C5FD0941BA446002E1C
:101E180000D020E14C461C4300D1C7E161464C1E6E
:101E2800012900D123E25E4DAC4500D1D8E1A4469A
:101E38001AE13A00024300D1E4E02200013A012C01
:101E480000D1C3E156498C4200D1B1E094462BE75A
:101E5800012461408B468D4200D016E752498C46DA
:101E6800B4446446002C00D1D3E0911B8C46002E6C
:101E780000D15EE14A498A4200D1BEE180214C4648
:101E880009040C43A1466146382900DDBAE11F293F
:101E980000DD27E22024641A4946A1401E00884636
:101EA8006146A340CE4041465C1EA34131431943DD
:101EB8000C0063464946D9407F18241884429B4148
:101EC8005B429A461600BA445DE0384C721C2242C6
:101ED80000D0DFE04A461A43002E00D05CE1002A19
:101EE80000D1CFE13A00024300D17FE11C1A4A46F3
:101EF800A3428941D21B4942521A9246120200D487
:101F08000AE2C41AA04280414B464042FF1A3B1ADB
:101F18009A465D461AE73A00024373D02200013A16
:101F2800012C00D1CBE0544542D0944648E710003C
:101F38001F3BD840202903D040235B1A9A40144302
:101F4800631E9C41002300269A460443630700D081
:101F5800FEE65246E308520713435246B446D208F7
:101F68000F498C452AD01203140B62465205520DB4
:101F78000CE73C000443621E9441E4189C429241E1
:101F880052424A44924653461B02DFD5044B01365F
:101F98009E4200D0A0E0320000240023F6E6C046AE
:101FA800FF070000FFFF7FFF01F8FFFFFE070000AB
:101FB800DB084A46520713434A46D2081900114320
:101FC80000D1B5E18024240314432403D54A240B0B
:101FD800DCE6200000F02AFB030018331F2B00DC8E
:101FE80095E622000838824000249E4200DC9AE6EA
:101FF800F61ACD4B1A409246A8E63C000443621EEE
:1020080094416CE64A46DB08520713434A46D20815
:10201800A6E7C64C721C224200D0ACE04A461A43DE
:10202800002E00D005E1002A00D156E13A00024313
:1020380000D1DBE01C189C429B414F44BA465B42EE
:102048009A4453461B0200D480E75246B64B0126F9
:102058001A4092467AE7B34CA24200D1C0E08024ED
:102068004D4624042543A9466446382C53DC614672
:102078001F2C00DDCDE020251E002D1B4C46AB405B
:10208800AC40CE405D1EAB41344323434C46CC406C
:102098003F1B45E04A461C1AD11BA34292415242BB
:1020A80092460A005146521A9246120200D583E01F
:1020B8005346234300D021E60022002553E71C188D
:1020C8009C429B414F44BA465B429A445346012680
:1020D8001B0200D43AE702265246934B01211A40CC
:1020E8001300214062080A43DC075B089A46144340
:1020F8002CE63900203AD1406246202A06D06446B0
:102108004022121B3C00944004430194019C621E2F
:1021180094410C43E3E5494619430B005C1EA34177
:10212800C41AA0429B415B42FB1A9A465D461600C0
:10213800DCE54946194300D1AEE061466446013901
:10214800012C00D1E0E0774CA44556D08C469AE6A5
:10215800614620223C00521A944001009040A0465B
:102168006446421E90416246E1404446D7400C43D3
:102178000443B94401E76B498A4200D10CE71818B7
:1021880098429B414F445B42FB18DC0740085B08C0
:102198009A4616000443D9E6002A00D081E03B00A5
:1021A80003431DD18022002512030BE7C0087B07DB
:1021B8005D460343FA08D3E6C41AA04280414B4661
:1021C8004042FF1A3B1A9A465D4697E51C1A4A4652
:1021D800A3429B41D71B5B42FB1A9A46012685E521
:1021E800C0087B075D460343FA08E7E64A46DB0872
:1021F800520713434A46D208B5E6C0087B07034393
:10220800FA08DBE6494619430B00591E8B411C00AE
:1022180053E64D46203CE540202905D04024641A69
:102228004946A1400B43984643465C1EA3412B43B5
:1022380076E7002AE1D03A00DB08024300D1B8E68D
:102248004A465207802413434A462403D2082242AE
:1022580007D0FE08264204D15D463200C3087F0736
:102268003B43590FDB004907DB080B43A6E6C41ABA
:10227800A04280414B464042FF1A3B1A9A465D46AF
:10228800012633E53B00034300D115E7C0087B076F
:102298005D460343FA0866E6C0087B070343FA086D
:1022A8005EE63A00DB08024300D182E64A4652075E
:1022B800802413434A462403D208224207D0FE084A
:1022C800264204D15D463200C3087F073B43590FBD
:1022D800DB00DB0849070B4370E6C0087B070343B4
:1022E800FA0840E64C462039CC406146202906D001
:1022F80066464021891B4E468E40334398464346E6
:10230800591E8B411C43D8E51C18844280414F4418
:10231800BA4640428244D9E65346234300D1CBE62D
:1023280014E6C046FF070000FFFF7FFFFE0700001E
:102338000023014A1C0029E5FF07000070B50500CD
:102348000C481C0316005B000A034900120B490DD8
:10235800240B5B0D814208D0064A0020934203D12A
:1023680020003043431E984170BD01202A43FBD111
:10237800F2E7C046FF0700000A0030B5134C5300CF
:1023880009030500090B00205B0DD20FA34204DDF1
:102398000F48834202DD0F4BD01830BD8020400328
:1023A80001430D48C01A1F2808DD0C48C31AD9403C
:1023B8000B005842002AF0D11800EEE7084CC5403F
:1023C800A446634499400B002B43F2E7FE03000048
:1023D8001D040000FFFFFF7F33040000130400000A
:1023E800EDFBFFFF70B5002816D0C317C5185D4078
:1023F800C40F280000F01AF9114B1B1A0A2816DC22
:1024080002002E00153296400B22121AD5405B05A9
:102418002D032D0B5B0D03E000240023002500266F
:102428001B052B43E40723433000190070BD0B380C
:1024380085405B052D0300262D0B5B0DF0E7C0469C
:102448001E04000010B5041E10D000F0EFF80F4B6A
:102458001B1A0A2811DC0B222100121AD140153050
:102468000A035B058440120B5B0D01E00023002288
:102478001B0513432000190010BD22000B388240B1
:102488005B0512030024120B5B0DF1E71E0400002C
:1024980070B542024300C40FFE201B0E591C550A9A
:1024A80008420CD0E02189008C466D07120B63446A
:1024B8001B051343E40723432800190070BD002BB4
:1024C80014D1002D1BD0280000F0B0F80A281CDC1D
:1024D8000B232A001B1ADA40030015339D400E4BCC
:1024E80012031B1A5B05120B5B0DE1E7002D09D0E7
:1024F800130B802212031A436D07084BD8E70023F9
:102508000022D5E70022054BD2E703002A000B3B47
:102518009A400025E3E7C04689030000FF07000052
:102528000200F0B54B000D03400F5B0DCC0F6D0A98
:102538003A490543581CD70008420AD03849591867
:10254800FE2916DDFF200022C0051043E4072043C2
:10255800F0BD002B06D13D4326D005229201520A38
:10256800D8B2F1E72F43EDD08022D203FF202A43CF
:10257800EAE700291BDD9201501E8241ED007F0F22
:102588002A433A43530747D00F231340042B00D064
:1025980004328023DB0413403ED0481CFE29D1D0EE
:1025A8009201520AC0B2CFE700200022CCE70A000D
:1025B80017322FDB802636042E431E256D1A1F2D59
:1025C80011DD02225242521A3100D140202D04D08E
:1025D800144A944663449E4037433A00531E9A4136
:1025E8000A430021CEE7104A3800944663449840D5
:1025F8003A00411E88419E40EA4030430243002190
:102608005307C1D180211300C90401200B400A429D
:10261800C6D1A3E70023A0E70B009FE7FE07000051
:1026280080FCFFFFA2FCFFFF82FCFFFF1C210123AF
:102638001B04984201D3000C10391B0A984201D39D
:10264800000A08391B09984201D30009043902A27B
:10265800105C40187047C0460403020201010101E2
:102668000000000000000000F0B50024494BA5B0B0
:102678001C7004F063FB484804F02AFA0821474814
:1026880003F0FEFB464B474A4749DA6347480922AD
:1026980004F064F904F022FE04A80494059404F0FC
:1026A800B1FA04F09BFA143404F052FA404B414D4D
:1026B800414E424A307006A91A602800002202F0F2
:1026C800D5FC002203A9280002F0F8FC04F006FA61
:1026D800070004F023FA019002A804F067FB0298AF
:1026E800FFF7D6FE364A374BFEF7EAFB364B002299
:1026F800FEF7E0FFFDF7D0FE031C80B2642800D986
:1027080064239BB20093314B00201D8805F092FA98
:10271800244805F087FA2E4805F044F93A002D4977
:102728000BA806F0C5FB210020000BAA05F018FA3B
:102738002949019A0BA806F0BBFBADB23C21200049
:102748000BAA05F00DFA2A0024490BA806F0B0FBE5
:10275800642120000BAA05F003FA2149009A0BA86E
:1027680006F0A6FB8C2120000BAA05F0F9F93378B6
:102778001C49012B03D01C49022B00D01B490BA874
:1027880006F09BFCC82120000BAA05F0E9F905F02A
:1027980033FC89E712020020300300206004002087
:1027A80000040040FFFF000004020020AC040020E9
:1027B80000300040840300200E020020AAAA000076
:1027C8003333333333330F400000594010020020B5
:1027D8000AB30008A8B10008B6B10008C7B10008DC
:1027E800D2B10008E3B10008FAB1000811B200083C
:1027F80010B5064906480B794A791B021343054A66
:102808001380092204F0AAF810BDC0460402002073
:10281800AC040020100200200122054B10B51A70EC
:102828000022044B032164201A7004F0B1FA10BD91
:10283800120200200000002010B592B034220021BE
:1028480005A806F0A1FB1022002101A806F09CFBB8
:102858008020800001F030FF0A230593F6330893A7
:10286800002309930E9308330F9380239B02402281
:102878001093802302240A929B053F3A05A80B92E5
:102888000C940D94119301F043FF002801D072B607
:10289800FEE7072303900490210001A80193029406
:1028A80002F094F9002801D072B6FEE712B010BD0C
:1028B800F0B504279FB000F0BDFCFFF7BDFF142260
:1028C800002111A806F060FB20220126C64D082130
:1028D8006B6BA0203B436B636B6BC44C3B40029318
:1028E800029B6B6BC00513436B636B6B13400393C5
:1028F800039B6B6B1E3A33436B636B6B33400493E0
:10290800049B6B6B13436B636B6B13400593059BC5
:102918006B6B00220B436B636B6B0B4006932100C0
:10292800069B01F01FFB32000821B14801F01AFB99
:1029380000221021AF4801F015FBA02011940024BB
:1029480011AB1900C00512961394149401F052FAB1
:102958006A23119311AB1900A6481294139401F03D
:1029680049FA022211AB1900A24813921197129446
:1029780001F040FA0723119311AB19009C481294F7
:10298800139401F037FA08219948119111A9129668
:10299800139414940C3701F02DFA964811A9119745
:1029A80012961394149401F025FA8021A020320085
:1029B8000902C00501F0D6FAAB6B22003343AB63C2
:1029C800AB6B2100334009200193019B01F014F8FF
:1029D800092001F03BF8210022000A2001F00CF840
:1029E8000A2001F033F8844D844B28002B60844B77
:1029F800AC606B60EE602C616C61AC61EC612C6268
:102A080001F0EAFB0100A04201D072B6FEE72800FF
:102A180001F008FE011E01D072B6FEE7280001F0A1
:102A280027FE031E01D072B6FEE77648764A836019
:102A38000260822252004260E022D200C26002227A
:102A48004361036243628362036308230261FF32C6
:102A5800FF328261FA3AFF3AC761C262436302F009
:102A68003DFC002801D072B6FEE7684C684BA060B8
:102A7800236096239B0163600C23E0602061A061C2
:102A8800E06120626062A0622000636103F0DCFE06
:102A9800011E01D072B6FEE7200003F0D7FF011E29
:102AA80001D072B6FEE7200003F0F0FF002801D045
:102AB80072B6FEE7200003F0ABFF051E01D072B628
:102AC800FEE701001C220AA806F05EFA342229005B
:102AD80011A806F059FA4F4C4F4B200023601F23D2
:102AE8006360FA239B00A560E36025616561A561C9
:102AF80002F06CFF002801D072B6FEE7200002F059
:102B08008FFF002801D072B6FEE700226025200062
:102B18000AA90A950B920C920D920E920F9210929E
:102B280002F0E4FF002801D072B6FEE7802311907E
:102B380012901390149015909B0117901D9011A955
:102B48002000169303F0D0F9061E01D072B6FEE7F6
:102B5800200000F0FDF9102231000AA806F014FA4E
:102B68000C22310007A806F00FFA1C22310011A828
:102B780006F00AFA294C2A4B20002360294B66608C
:102B8800E3608023A6602661A36102F01FFF00288E
:102B980001D072B6FEE7802320005B010AA90A93E0
:102BA80003F038F8002801D072B6FEE7200002F0E2
:102BB80037FF002801D072B6FEE70790099007A9F1
:102BC800200003F061F9002801D072B6FEE71290E8
:102BD800139015900822200011A9119502F086FF84
:102BE800051E21D072B6FEE7001002405480000096
:102BF800000C005000040050300300200058004032
:102C0800BC7D7010B003002000300140AC040020EF
:102C180000380140140400200048014060040020EE
:102C280000040040FFFF0000200000F091F90C2292
:102C3800290011A806F0A8F92F4C304B0126236073
:102C480080231B06636004236361A319DD772300D7
:102C58002C331D70230020003C332583A560E560DC
:102C68002561A576E6616562A56225636563A5634E
:102C78001D70E56400F01AFB002801D072B6FEE76B
:102C88001290139011A92000119600F089FC031EE0
:102C980001D072B6FEE71A481A4A43610260402220
:102CA80082603F32C260803202618022D205836135
:102CB800C3610262436202F079F9002801D072B65A
:102CC800FEE7114C114B65252360114B2360062349
:102CD8006360EF33FF33A360E368002B02D0013D4C
:102CE800002D04D10B4B2360FFF7BEFCFEE7282024
:102CF80000F0C6FAF0E7C0461402002000240140A4
:102D0800840300200028004000300040CCCC0000A4
:102D180055550000AAAA000072B6FEE701210A4B29
:102D280082B01A6C0A431A641A6C0A408021009215
:102D3800009ADA6B49050A43DA63DB6B0B400193AF
:102D4800019B02B07047C0460010024010B5040055
:102D580088B01422002103A806F016F90F4B226848
:102D68009A4219D180210E4B49031A6CA0200A43BC
:102D78001A641A6CC0050A400192019A0122596B23
:102D8800114359635B6B03A913400293029B03230E
:102D98000392049301F02EF808B010BD00240140FE
:102DA8000010024010B5040088B01422002103A8C6
:102DB80006F0EAF8114B22689A421CD10222104C04
:102DC8001048636B03A913436363636B1340019358
:102DD800019BC023DB010393122304930C3B07934D
:102DE80001F008F88022E36BD2031343E363E36B3B
:102DF80013400293029B08B010BDC0460058004023
:102E0800001002400004005010B5040088B01822D9
:102E1800002102A806F0B8F8144B22689A4223D180
:102E280080239B020293802302A89B00079301F052
:102E38008FFF002801D0FFF76FFF80220C4B120292
:102E4800D96D02200A438021DA65DA6BC9000A438A
:102E5800DA630022DB6B0B4001931100019B00F049
:102E6800CBFD022000F0F2FD08B010BD00280040A4
:102E78000010024030B5050089B01422002103A8D3
:102E880006F082F81C4B2A689A4232D180211B4BEB
:102E980049011A6CA0200A431A641A6CC0050A403A
:102EA80001210192019A5A6B0A435A635B6B0B40EA
:102EB8000293029BA02303A903939E3B049300F073
:102EC80099FF0F4C0F4B8022236011236360013B55
:102ED800A36000232000E36022616361A361E361D2
:102EE800236200F013FE002801D0FFF715FF6C6580
:102EF800A56209B030BDC046003001400010024054
:102F0800780200201C00024003680E4A82B09342F7
:102F18000AD102210C4BDA6B0A43DA63DB6B0B40F4
:102F28000093009B02B07047084A9342FAD180216F
:102F3800054BC9021A6C0A431A641B6C0B400193B7
:102F4800019BEFE7000400400010024000480140E8
:102F580010B5040088B01422002103A806F014F864
:102F68002368144A934212D10223134A516B19431E
:102F78005163526B04931A400192019A0122039201
:102F880007920E4803A900F035FF08B010BD0C4A9F
:102F98009342FAD10223084A516B19435163526B89
:102FA80004931A400292029A802292000392079395
:102FB800E7E7C0460004004000100240000400504B
:102FC8000048014070B506008EB01422002103A805
:102FD80005F0DAFF1822002108A805F0D5FF274BD5
:102FE80032689A4248D1012308A8089301F0B0FE3C
:102FF800002801D0FFF790FE8021214BC9011A6CEF
:10300800A0200A431A641A6C00250A400192019A0A
:103018000122596BC005114359635B6B03A9134027
:103028000293029BC023DB000393022305950493BC
:103038000695079200F0DEFE124C134B2000236029
:10304800322363604E332361603BA560E5606561B0
:10305800A561E361256200F059FDA84201D0FFF7A0
:103068005BFE0022331D1B201100DC67A66200F006
:10307800C3FC1B2000F0EAFC0EB070BD0038014014
:1030880000100240D402002008000240FEE7FEE7DC
:103098007047704710B500F0E1F803F03FFE10BD2F
:1030A80010B5024801F0FEFE10BDC04684030020A2
:1030B80010B5024800F046FE10BDC046D4020020FC
:1030C80010B5024800F03EFE10BDC0467802002050
:1030D80010B5024802F0F0FF10BDC046AC04002055
:1030E8000120704710B505F0BBFF162303600120CF
:1030F800404210BD10B505F0B3FF16230360FEE78C
:1031080070B50E0014000025A54201DB200070BD3B
:1031180000E000BF70550135F6E770B50E001400E9
:103128000025A54201DB200070BD705D00E000BFF6
:103138000135F6E701204042704780239B010020BB
:103148004B60704701207047002070470B490C4ABC
:103158000300521A0B4910B50868002801D10A4823
:1031680008600868C318934206D905F079FF0C2354
:1031780003600120404210BD0B60FCE70004000022
:10318800002000204005002048070020704700006C
:103198000D488546FFF7FAFF0C480D490D4A0023F4
:1031A80002E0D458C4500433C4188C42F9D30A4AF4
:1031B8000A4C002301E013600432A242FBD305F05D
:1031C80055FFFFF775FBFEE70020002000000020F8
:1031D800E8010020ACDE0008E801002044070020D8
:1031E800FEE7000070B5104B05001978002901D1E1
:1031F800012070BDFA208000FCF79AFF0B4C0100FB
:103208002068FCF795FF00F02DFC041EF0D1032D7B
:10321800EED8020001202900404200F0EDFB044BEB
:1032280020001D60E5E7C0460800002004000020DB
:103238000C0000208023084A5B00116810B50B437E
:1032480003201360FFF7CEFF041E03D1FFF766FDCE
:10325800200010BD0124FBE700200240034A044B74
:1032680011681B785B1813607047C046440500203E
:1032780008000020014B18687047C046440500202C
:1032880070B50400FFF7F6FF0500631C02D0044B7D
:103298001B78E418FFF7EEFF401BA042FAD370BD7D
:1032A8000800002080684007C00F70470023F0B571
:1032B80085B0040001260393984200D1B4E0856DDF
:1032C8009D4205D1FFF742FD23005433E5651D708B
:1032D800802325685B05AA681A4200D1A7E0AB687D
:1032E8000026DB0007D410230126A26D1343A36533
:1032F800E36D3343E3652800FFF7D4FF1022A36D85
:103308001340034300D0CDE0A26D694B1A40063349
:10331800FF331343A3652269AB680192DB0762D4CC
:10332800276BE1687B1E9F41A368A27E0B43217E29
:103338003F0389030B43617EC9030B4351030B43CE
:103348009C46019B002B00DB86E0590049082300BE
:1033580060462C331B785B0003433B430B43611CE3
:10336800C97F012905D1002A00D078E080225202C5
:103378001343626A002A05D0E02149000A40A16A85
:103388000A431343EA684B490A401343EB6023009E
:1033980062683C33E16C1B78970FBF079C46394342
:1033A800012B08D1236C606C03430B43A16C0B43C6
:1033B80061463B4319432B693F4F3B400B438021F8
:1033C8002B6153005B08C9058B420CD080231B0678
:1033D8009A4208D039493A4F0B683B40F027BF035F
:1033E8003A4013430B60072170276B69626B8B436C
:1033F80013436B616969A36BB9431B010B436B6191
:10340800019B002B33D1A96A103B0B43AB62072108
:103418006B690B409A423AD10023E365A26D0333EE
:103428009A43023B1343A365300005B0F0BDAA6878
:1034380024490A401343AB60234B24491868FCF71E
:1034480077FE013040000390039B002B00D146E734
:10345800039B013B0393F7E78021890377E7202249
:10346800A76D3A43A265E26D1143E16581E78023C8
:1034780001999B039942CAD11C21AB6AE369013BBC
:103488009B000B402C3999400B00216EBDE712239D
:103498000126A26D9A43023B1343A365E36D3343B0
:1034A800E365C1E7A36D01261A43A265BCE7C046E0
:1034B800FDFEFFFF0102DEFF02FCFF1F082701409F
:1034C800FFFFC3FFE8FFFF6F04000020400D03006B
:1034D800F7B5466904000F00082E0AD003680120DA
:1034E800DB680426034204D02023A26D1343A3659E
:1034F800FEBDFFF7BFFE019025682B681E4225D050
:103508008023A26D9B001343A365C023EA681B01B7
:103518001A4215D1A37E002B12D12B681B070FD599
:103528002800FFF7BFFE002828D10C226B689343C0
:103538006B60A26D174B1A400433FF331343A36526
:10354800207E002823D10C232B60D1E77B1CD4D00C
:10355800FFF790FE019BC01AB84201D8002FCBD1CB
:10356800320023681B681A401E42C5D10423A16D8E
:1035780054340B43636003202270B9E72023A26D03
:103588001343A3650123E26D1343E365D8E70020E5
:10359800AEE7C046FEFEFFFF0368186C70470000E8
:1035A8000023F0B585B003930300009154331A78D3
:1035B80005000220012A00D1BFE001222F691A70FC
:1035C8002E683000FFF76EFE002800D0EAE0009B6E
:1035D80004225B6880219C4697436246009B09064B
:1035E8001B68022A00D1B1E05A03520B8F4210D156
:1035F800B16A0A43B262009A7069926819026C4C07
:103608000A402240884302437261002B60DB00209D
:1036180090E01F2167460F401039B940CC43019410
:103628002C6E8C432100002A12D1980E1F321040B4
:10363800B840624608439208E969013228668A421E
:10364800D9D8B16A01989A00120FBA400140D0E760
:1036580001221342ECD1921801201342E8D1100044
:1036680002321342E4D101301A07E1D40130DA06FC
:10367800DED401309A06DBD401305A06D8D40130A2
:103688001A06D5D40130DA05D2D401309A05CFD440
:1036980001305A05CCD401301A05C9D40130DA04F6
:1036A800C6D401309A04C3D401305A04C0D40130BE
:1036B8001A04BDD40130DA03BAD401309A03B7D45E
:1036C80080221800D20210401342B1D01220AFE776
:1036D800E024384A3848116864040C40834219D100
:1036E80080200004014292D1136834490B402343DF
:1036F8001843334B106018683249FCF719FD431C16
:103708000C2058430390039B002B80D0039B013B64
:103718000393F8E72C48834211D180235B04080007
:103728001840194200D072E71168244E31402143F5
:103738000B431360002354352B7005B0F0BD2348AC
:10374800834200D063E78023DB03E8E78F4204D19C
:10375800B26A5903490B8A43B262002B00DB56E771
:10376800144A15481168834208D1A02310685B04E5
:103778000B40124901400B43136048E7124883424B
:1037880003D1C02310681B04F2E71048834200D01D
:103798003DE7C0204004136801400848034019432E
:1037A800116034E72023AA6D01201343AB65C1E7FC
:1037B80000FFFF0708270140001000B0FFFF3FFE91
:1037C80004000020400D0300004000B8002000B4B1
:1037D80070B5056804002800FFF764FD002801D1D2
:1037E800002070BDAB689B0705D4AA680F4B1A4030
:1037F80010231343AB60FFF73DFD04260500236843
:103808009B683342ECD0FFF735FD401B0228F6D900
:1038180023689B683342F2D010230120A26D134322
:10382800A365E36D0343E365DBE7C046E8FFFF7F7D
:103838000023F7B504000193036801209A68024247
:1038480001D00020FEBD9968224A114207D01023FA
:10385800A26D1343A365E36D0343E365F2E79A683A
:103868001D4D2A40104398601C4B1B681B0223D433
:10387800637E012BE5D0FFF7FDFC012607002268D7
:1038880013683342DDD19368334203D193682B40E8
:1038980033439360FFF7EEFCC01B0228EFD923687F
:1038A8001B683342EBD11023A26D01201343A3659B
:1038B800E36D3343E365C5E7094B0A491868FCF72C
:1038C80037FC01300190019B002BD1D0019B013BBB
:1038D8000193F8E717000080E8FFFF7F0827014001
:1038E80004000020400D030070B504000068FFF7D5
:1038F800D9FC06000220002E1DD1250054352B7856
:10390800012B18D0012320002B70FFF791FF00280E
:1039180012D1A26D094B1A4080235B0013431C226D
:10392800A3652368E0651A6028709968044A114005
:1039380004220A439A6070BD2E70FCE7FEF0FFFF78
:10394800E8FFFF7F036870B50400012099689A6852
:10395800024201D1002070BD02221142FAD1052194
:103968009D680D40012D1FD19968134801400A43F5
:103978009A6003221A60FFF77DFC060023689B68A3
:103988002B42E7D0FFF776FC801B0228F6D9236884
:103998009B682B42F2D01023A26D01201343A3652C
:1039A800E36D2B43E365D6E71023A26D1343A365AC
:1039B800E36D0343E365CEE7E8FFFF7F70B50600DC
:1039C8005436337804000220012B12D00125200040
:1039D8003570FFF7FDFE002809D12000FFF7B2FF80
:1039E800002804D1A36D034A13401D43A565002395
:1039F800337070BDFEFEFFFF30B5FF2503242A009B
:103A08000440E400A24089012940D243A140C3B246
:103A180000280ADBC0240B4B80088000C018A400D3
:103A2800035913400B43035130BD0F200340083B9B
:103A380005489B089B001B18D86902400A43DA61B5
:103A4800F2E7C04600E100E000ED00E0002805DBF9
:103A58001F2318401E3B8340014A13607047C0462D
:103A680000E100E08022431E5204012093420DD25F
:103A7800C021074A07485360036A09061B021B0A4C
:103A88000B43036200200723906013607047C04611
:103A980010E000E000ED00E0F0B5846CC56C6560F6
:103AA800046D002C02D0446D856D65601C24056C86
:103AB800084E25401B3CAC4077683C437460046862
:103AC80063608368102B02D1A260E160F0BDA16041
:103AD800E260FBE70000024010B50400036C094AED
:103AE8009B089B189B00436400681421C0B20838E7
:103AF800FCF71EFB044BA3641F2318401E3B8340A6
:103B0800E36410BD0082001080080240F8B504008C
:103B18000120002C48D02568264B1421E818FCF712
:103B280007FB02238000A61D2064F3772B68224A36
:103B3800A76813402B60E36821693B430B43616925
:103B48002A680B43A16920000B43E1690B43216AF2
:103B58000B4313432B60FFF7BFFF8023DB019F421A
:103B680001D1002363603F236268616C13400B60DE
:103B7800E06CA16C013A4860032A16D80F4A104835
:103B880099180322013B1340023A9A40A265130098
:103B980000228900216560650A60436000200123D6
:103BA800E0630534F377E077F8BD002323656365A8
:103BB800A365F3E7F8FFFDBF0F80FFFF3F8200100A
:103BC80040090240F7B5451D0193EE7F040002202D
:103BD800012E33D00138E877A71DFE7FB44663462F
:103BE800F6B200960026834230D10130F877256876
:103BF800E6632868009B98432860019B2000FFF734
:103C08004BFF236BB3421AD00E232A6813432B6051
:103C1800636C1A68D20304D58022196852000A43DB
:103C28001A60236D002B04D08022196852000A43C1
:103C38001A60012300202A6813432B60FEBD04226A
:103C48002B6893432B602A680A23DFE78023E3630A
:103C5800EE77F3E70300F0B50120002B09D0981D9B
:103C6800C27F5C1D022A05D00422DA6300230120EA
:103C7800E377F0BD0E2519685E6C0A68AA430A60EE
:103C88003268104D2A40326001220E6896430E6059
:103C9800196C1B3211401B3A8A400B4E77683A4325
:103CA8007260D96C9A6C51601A6D002A05D011683F
:103CB800294011605A6D9B6D53600123C377002022
:103CC800E077D6E7FFFEFFFF00000240F8B5811D50
:103CD800CB7F022B04D00423C363033B1800F8BD39
:103CE8000E2402681C271368456CA3431360012344
:103CF80014689C4314602A68104C22402A60026CA5
:103D08000F4D3A4093406E6833436B60C26C836CCE
:103D18005A60036D002B05D01A6822401A60436D63
:103D2800826D5A6001230024CB77431DDC77826BB8
:103D38001300A242D2D090472300CFE7FFFEFFFF37
:103D480000000240F8B51C240427016C264A2140D3
:103D58003C008C40166803681D6826420FD03D421F
:103D68000DD01968890602D41968B94319605368D7
:103D78001C43036B5460002B1BD0984719E00227A3
:103D88003C008C40264215D03D4213D01968890664
:103D980006D40A251968A94319600121831DD9771A
:103DA80053681C4354600022431DDA77C36A934268
:103DB800E3D1F8BD082427008F403E42F9D02542C0
:103DC800F7D00E251C68AC431C6001231D008D40F4
:103DD8002900546821435160821DC363D3770022B0
:103DE800431DDA77436BE2E7000002400630C07FEC
:103DF800C0B270470023F0B585B00A681400DC40F3
:103E080001D105B0F0BD012514009D402C4000945F
:103E18002A4200D191E04A685F0094460322644632
:103E280022400324BC40E4430194541E012C2ED8A4
:103E38008668019C2640CC68BC4034438460446852
:103E48000126AC4325006446240934409C402C4399
:103E58004460C568019C25408C68BC402C43C46004
:103E6800022A16D107250F261D40AD00AE40DC08FA
:103E7800A40004190294246A03962600039CA6430E
:103E880034000E69AE402643029C266201E0032AF4
:103E9800DFD1BA400468019D25402A43C02402604E
:103EA8006246A402224248D0254A03259C08A40061
:103EB800A4180F221D40ED00AA40A027266EFF057A
:103EC80096430022B8420CD01E4F0132B84208D0A7
:103ED8001D4F0132B84204D01C4F0132B84200D005
:103EE8000232AA40674632432266154C009A266879
:103EF800009DD2433543FF0201D435001540674683
:103F080025606668009D3543BF0201D43500154021
:103F1800674665600E4C009DE66F3543BF0301D4CC
:103F2800350015406746E5670A4C009EE56F2E434D
:103F3800FF0301D415402E00E66701335DE7C04654
:103F4800001802400004005000080050000C005007
:103F5800081802400418024000690840431E9841AE
:103F6800C0B27047002A01D0816170478162FCE7C6
:103F780003689A69920701D500229A620122996919
:103F8800114202D199690A439A61704730B5039C7E
:103F980000682343120489051A43890D054B4568B7
:103FA8000A43640D234352009D4352082A4342604A
:103FB80030BDC046FF63FF03F7B5150002680E0069
:103FC800916910230F0004001F40002019420ED0F1
:103FD8002027D3610090019023689A693A4263D1FF
:103FE800019A002A31D004270120009B1F43802218
:103FF80025685200AB69134202D00120EA610743E9
:104008008022D200134203D0082101200F43EA6125
:104018008022920013424CD00223EA611F43200001
:10402800FFF7A6FF6B68244A012013406B60636C9E
:1040380020223B436364230041331A70220000238B
:10404800423240341370237035E0721CC5D0FFF73C
:1040580011F9401BB04201D8002EBDD122002368BF
:10406800423258681178CAB2802194469A69090286
:104078000A420CD08022D201104208D16146202980
:1040880005D059680A435A60FFF7F4F80500236819
:104098009B693B42A0D1FFF7EDF8401B1928F6D9E0
:1040A80001230097019397E7019A002A9BD1DF61CA
:1040B80099E70028B3D1FEBD00E800FEF8B504007A
:1040C8000D001600022723689B693B4201D000209F
:1040D800F8BD320029002000FFF76EFF002818D134
:1040E8006B1CF0D0FFF7C6F8801BA84201D8002D42
:1040F800E9D123689B691A003A403B42E3D1202169
:10410800636C0B43636423004034413319705A7065
:1041180022700120DCE7F8B504000D0017001E002E
:1041280023689B692B405B1B5A425341BB4201D019
:104138000020F8BD31002000069AFFF73DFF002857
:104148001ED1731CECD0FFF795F8069BC01AB0423D
:1041580001D8002EE4D123689B692B405B1B5A428F
:104168005341BB42DCD12022636C134363642300B8
:1041780041331A70220000234232403413702370F6
:104188000120D6E7F8B504000E00170020252368A3
:104198009B692B4201D00020F8BD3A003100200075
:1041A800FFF70AFF002815D1FFF764F8C01BB042DB
:1041B80001D8002EEBD123689B691A002A402B42B4
:1041C800E5D1636C2B4363642300403441331D7095
:1041D8005A7022700120DFE770B504000120002C1E
:1041E8004ED0250041352B78DAB2002B05D12300BB
:1041F800403320001A70FEF7D5FD242301212B70CF
:104208002368E0681A68A6688A431A601D496268CC
:104218000A401A619A681C490A409A60012807D125
:104228008022120232439A605A681848024009E014
:104238008422120232439A600228F5D180225868FB
:10424800120102435A605868114A02435A60DA68F8
:1042580000200A40DA60616922690A43A1690902FB
:104268000A43DA60216AE2690A431A60012219687E
:104278000A431A60202360642B7020634234207044
:1042880070BDC046FFFFFFF0FF7FFFFFFFF7FFFF96
:1042980000800002F0B589B004930EAB039204CB02
:1042A80004001B88059206930300413307931B788B
:1042B8000F000220109E202B08D1002A02D0069B56
:1042C800002B05D180239B006364012009B0F0BD59
:1042D800230040331A780220012AF7D001221A70ED
:1042E800FEF7C8FF80210500009019230122200055
:1042F8000902FFF710FF0028E7D12123079A3900A8
:1043080013702300423307934023079A1370059BC9
:1043180060646362069B606363856B461A7C4C4BE2
:104328002000009380235B04FFF730FE2A00310051
:104338002000FFF7C3FE002829D1049A2368012A28
:1043480016D16A46127B9A6233000022802120002F
:104358000095FFF7E0FE002819D1638DFF2B1AD8CE
:104368008023628D9B0492B22285D2B2009017E01E
:10437800039A3100120A9A6220002A00FFF79EFE73
:10438800002804D16B4622681B7B9362DCE700237C
:104398004034237099E7FF22802322855B04009034
:1043A80039002000FFF7F2FD2A0031002000FFF756
:1043B80085FE002800D088E7636A226819780133EF
:1043C80091626362638D228D013B9BB26385013AE2
:1043D800638D92B22285002B17D0002A15D13300A5
:1043E800802120000095FFF796FE002800D06CE79A
:1043F800638DFF2B23D9FF2323858023FF22009081
:104408005B0439002000FFF7C1FD638D002BCBD181
:104418002A0031002000FFF7B5FE002800D054E73D
:10442800202123680B4DD9615A682A405A6023001D
:1044380041331970079B40341870207046E7802379
:10444800628D9B0492B22285D2B20090D9E7C04611
:104458000020008000E800FEF0B589B004930EABA0
:10446800039204CB04001B88059206930300413392
:1044780007931B780F000220109E202B08D1002ADA
:1044880002D0069B002B05D180239B00636401208A
:1044980009B0F0BD230040331A780220012AF7D072
:1044A80001221A70FEF7E6FE80211923009005000C
:1044B800012220000902FFF72EFE031EE7D1222267
:1044C80007990A70220042320792402207990A701F
:1044D800059A60646262069A4F4962856A4660631B
:1044E800127C200000913900FFF750FD2A003100AE
:1044F8002000FFF7E3FD00282AD1049A2368012A47
:1045080017D16A46127B9A623300002240212000AC
:104518000095FFF700FE00281AD1628D3F4BFF2A55
:104528001AD8628D92B2228500938023D2B29B045E
:1045380017E0039A3100120A9A6220002A00FFF756
:10454800BDFD002804D16B4622681B7B9362DBE724
:104558000023403423709AE7FF22228500938023AA
:104568005B0439002000FFF711FD3300002204210D
:1045780020000095FFF7CFFD002800D087E72368CB
:104588005A6A636A1A70636A228D01336362638DA3
:10459800013A013B9BB26385638D92B22285002B61
:1045A80017D0002A15D13300802120000095FFF78D
:1045B800B2FD002800D06AE7638DFF2B23D9FF23C3
:1045C80023858023FF2200905B0439002000FFF739
:1045D800DDFC638D002BC8D12A0031002000FFF7D5
:1045E800D1FD002800D052E7202123680C4DD96165
:1045F8005A682A405A60230041331970079B403497
:104608001870207044E78023628D9B0492B2228543
:10461800D2B20090D9E7C046002000800024008074
:1046280000E800FEF0B504004134227803000F00D2
:104638000220D6B2202A18D11D0040352A78012A36
:1046480013D0242222701B68233A19680748914323
:104658001960196801400020196019683943196008
:1046680019680A431A6026702870F0BDFFEFFFFF33
:104678000200F0B5413214780300E5B20220202C84
:1046880017D11C0040342678012E12D02230107029
:104698001B6823381E68074F86431E601E68090280
:1046A8003E403143196019680843186000201570AE
:1046B8002070F0BDFFF0FFFF10B5114C11492368C1
:1046C80002000B4003432360802300209B009A4292
:1046D8000ED10D4B0D49186806235843FBF728FDEA
:1046E8008022431CD200616908001040114200D1A9
:1046F80010BD002B01D0013BF5E70320F8E7C046C9
:1047080000700040FFF9FFFF0400002040420F0046
:10471800F0B5040085B0002823D00368DB0710D467
:1047280023689B075ED423681B0700D5C2E0236873
:104738005B0700D5F3E0E369002B00D07AE10020A5
:1047480029E03822AF4DAB681340EA68102B0AD134
:10475800D3439B0709D12B689B03E1D56368002BE2
:10476800DED1012017E0082BF5D0802263685202C1
:10477800934212D12A6813432B60FEF77BFD8027F2
:104788000600BF022B683B42CAD1FEF773FD801BAF
:104798006428F7D9032005B0F0BDA021C9028B42D7
:1047A80008D180232968DB020B432B602B681A434E
:1047B8002A60E2E72A6894490A402A602A689349ED
:1047C8000A402A60002BD8D1FEF754FD8027060046
:1047D800BF022B683B42A3D0FEF74CFD801B642828
:1047E800F7D9D7E73822874DAB681340EA68102B12
:1047F80027D103210A40022A25D12A68520502D569
:10480800E268002AADD069686269814812020140F5
:104818000A436A60002B0CD12B687E4A7E491340FC
:10482800226913432B602B687C4A9B045B0FDA4098
:104838000A607B4B1868FEF7D5FC002800D172E7A8
:104848008FE7002BD9D0E368002B20D02B68714A62
:10485800802713402269FF0013432B6080232A68B6
:104868005B0013432B60FEF705FD06002B683B42F7
:1048780007D06A68636966491B020A4013436B6084
:1048880051E7FEF7F7FC801B0228EFD982E72B6877
:10489800644A802713402B60FEF7ECFC0600FF00FB
:1048A8002B683B4200D13EE7FEF7E4FC801B022860
:1048B800F6D96FE73822534DAB681340182B08D14F
:1048C8002B6E9B0700D432E7A369002B00D02EE79C
:1048D80047E7A2690123002A10D02A6E0227134352
:1048E8002B66FEF7C7FC06002B6E3B4200D01EE786
:1048F800FEF7C0FC801B0228F6D94BE72A6E022778
:104908009A432A66FEF7B6FC06002B6E3B4200D19E
:104918000DE7FEF7AFFC801B0228F6D93AE73822EC
:10492800384DAB681340202B08D1EB6D9B0700D4A2
:1049380001E7A368002B00D0FDE612E780220021E2
:10494800EB6B52050091134208D1EB6B1343EB63F9
:10495800EB6B13400393039B012300938027324E94
:104968007F0033683B4215D0A368012B22D1EA6D42
:104978001343EB65FEF77EFC02270600EB6D3B4216
:1049880038D0009B012B00D0D5E6EB6B274A1340AB
:10499800EB63D0E633683B433360FEF76BFC019072
:1049A80033683B42E0D1FEF765FC019BC01A022840
:1049B800F6D9EFE6EA6D052B05D1013B1343EB650C
:1049C800EA6D0123D4E701218A43EA65EA6D0331E0
:1049D8008A43EA65002BCDD1FEF74CFC022706007E
:1049E800EB6D3B42CDD0FEF745FC114B801B984246
:1049F800F6D9CFE6FEF73EFC0D4B801B9842BDD999
:104A0800C8E6C04600100240FFFFFEFFFFFFFBFFA5
:104A1800FF80FFFFFFC7FFFF040000200024F40011
:104A28000C000020FFFEFFFF00700040FFFFFFEFBB
:104A38008813000038213F4DAA680A40102A53D035
:104A48003D4A022B38D12B68802713402B60FEF794
:104A580011FC0600BF042B683B4227D1616A236A18
:104A6800EA680B43354980260A401343E26AB604D4
:104A78001343226B1343A26A12021343EB60802391
:104A88002A685B0413432B608023EA685B051343A1
:104A9800EB60FEF7EFFB04002B68334200D04EE6D4
:104AA800FEF7E8FB001B0228F6D973E6FEF7E2FBE7
:104AB800801B0228CFD96DE62B68802613402B6017
:104AC800FEF7D8FB0400B6042B68180030403342C8
:104AD80004D1EB681A4A1340EB605CE6FEF7CAFBA8
:104AE800001B0228F0D955E6012B00D139E6032234
:104AF800EB68216A1A408A4200D032E67022616A65
:104B08001A408A4200D02CE6FE21A26AC901194047
:104B18001202914200D024E6F822E16A92031A4078
:104B28008A4200D01DE6226B5B0F5B07934200D1DF
:104B380005E616E600100240FFFFFFFE8C80C11F4D
:104B4800FCFFFEEF382370B51D4CA2681A4205D150
:104B580023681C489B045B0FD84070BDA2681A40AC
:104B6800082A27D0A2681A40102A17D1E368E168FA
:104B7800DB43E5684906490F6F322D0A01311540BC
:104B88009B0709D11048FBF7D3FAE1686843490F3E
:104B98000131FBF7CDFAE0E70A48F4E7A2681A40CA
:104BA800202A09D0A26800201340182BD5D1FA205A
:104BB800C001D2E70448D0E780200002CDE7C04614
:104BC800001002400024F40000127A00F7B5040037
:104BD8000D00002801D10120FEBD07274A4E336889
:104BE8003B408B422AD3226893073BD4D20748D450
:104BF800072733683B40AB420AD93368BB432B4392
:104C08003360FEF737FB019033683B40AB426BD112
:104C180023683E4D5B076FD4FFF794FFAB683C49B0
:104C28001B051B0F9B005B581F210B40D840394ABE
:104C3800394B10601868FEF7D5FACDE73368BB43E7
:104C48000B433360FEF716FB019033683B40AB42E1
:104C5800C9D0FEF70FFB019BC01A304B9842F4D91C
:104C68000320B9E72949530704D5E0238868DB0105
:104C780003438B608B682A480340A06803438B601A
:104C8800B4E76268214F012A19D13B689B03A2D57A
:104C98000721BB688B431343BB60FEF7EBFA019017
:104CA8003823BA681A406368DB009A42A0D0FEF73E
:104CB800E1FA019BC01A194B9842F1D9D0E7022AB0
:104CC80003D13B689B01E3D485E7002A03D13B6805
:104CD8005B05DDD47FE70223032A03D1396E19422D
:104CE800D6D178E7F96DFAE7FEF7C4FA019BC01A46
:104CF8000A4B984288D9B3E7AB680A4A1340E2687E
:104D08001343AB6088E7C046002002400010024011
:104D18002CB20008040000200C00002088130000BA
:104D2800FFF0FFFFFF8FFFFF064B07499B68074A0D
:104D38005B045B0F9B005B581F2110680B40D84039
:104D48007047C046001002406CB200080400002002
:104D5800F0B50368050085B000209B033BD5802291
:104D6800484C5205E36B0090134208D1E36B1343A0
:104D7800E363E36B13400393039B012300938027B2
:104D8800414E7F0033683B433360FEF773FA01906E
:104D980033683B4211D0E26DC02310009B00696963
:104DA8003A4E18401A4201D088424DD1E36D6A69E3
:104DB800334013430020E36506E0FEF75BFA019BEE
:104DC800C01A0228E4D90320009B012B03D1E36B0E
:104DD8002F4A1340E3632A68D30706D503242949D9
:104DE8004B6DA3436C6823434B65930606D5254951
:104DF800284C4B6D2340AC6823434B6553040FD5B7
:104E080020492C694B6D9B009B0823434B658023ED
:104E1800DB059C4204D18023CC685B022343CB6032
:104E280012050FD5174A1C4C536DE96823400B43F4
:104E380053658023DB01994204D18023D1685B024A
:104E48000B43D36005B0F0BD8022E36DE06D19001F
:104E580052020243E265E26D104831400240E265C9
:104E6800E165DB07A2D5FEF705FA07000222E36D2C
:104E780013429BD1FEF7FEF9094BC01B9842F5D9A6
:104E8800A1E7C0460010024000700040FFFCFFFF91
:104E9800FFFFFFEFFFCFFFFFFF3FFFFFFFFFFEFF1B
:104EA80088130000036810B59A690400D20408D575
:104EB8000122196D114204D0D96D0A43DA65FDF754
:104EC800ABFC23689A69920409D50222196D114234
:104ED80005D0D96D20000A43DA6500F011F90123E5
:104EE8002934237010BD0000F8B50B4A036804008C
:104EF800DA60FEF7BFF9FA2705002026BF0023680D
:104F0800DB68334201D00020F8BDFEF7B3F9401B3F
:104F1800B842F4D90320F7E75F000100F7B540264F
:104F280003680500DA68002432420ED18022D9686D
:104F3800FA270A43DA60FEF79DF9BF0001902B6853
:104F4800DB68334201D1032C01D12000FEBDFEF7FE
:104F580091F9019BC01AB842F1D92B0003242933D7
:104F68001C70ECE7802270B50F4C0500E368934392
:104F7800E360A369603A134207D1FFF7B5FF002841
:104F880002D003202935287070BDA3699343A3611B
:104F9800FFF7AAFF002802D0032029352870202314
:104FA800A2691343A361EFE70028004070B504002D
:104FB8000120002C17D0250029352B78DAB2002BD8
:104FC80008D1230028331A7088231B02200063604D
:104FD800FDF71AFF02232B702368DA68D20603D57F
:104FE800012300202B7070BDCA225A62773A200034
:104FF8005A62FFF793FF002825D1236815499A695B
:1050080060690A409A61A26899690243E0690243AB
:105018000A439A61226920001A61E2681969120438
:105028000A431A61FFF79EFF00280CD12268266AFE
:105038009369DB00DB089361636A91693343A6696E
:1050480033430B439361FF2223685A620028C7D079
:10505800C9E7C046BFFF8FFB020903000A2050437F
:105068000F221340C018C0B27047000070B50C0082
:1050780001688B6863600B695B045B0CA3600B6859
:105088000D490B4098021D0ADEB2800EEDB29B0D51
:1050980020706570A670E370002A0AD1FFF7DCFF64
:1050A80020702800FFF7D8FF60703000FFF7D4FFAA
:1050B800A070002070BDC0467F7F7F0070B50C00D7
:1050C80003680E495B680B40180CDD04DEB21B0454
:1050D800ED0E5B0FE0706570A6702370002A0AD190
:1050E800FFF7BAFFE0702800FFF7B6FF60703000E6
:1050F800FFF7B2FFA070002070BDC0463FFFFF0061
:1051080070470000F0B51700002285B01D0002AB03
:10511800DA7004000E00FEF7ADF8ED192D1AFEF74F
:10512800A9F823222368009001932A4B1B68534354
:105138001B0D6B430393216802ABDA1C8B681800C4
:10514800304033423BD0C023DB009E4204D1019B58
:105158001B7BDBB2137013787B1CEFD0FEF78AF849
:10516800009BC01AA8422CD3E02123685A688A43BE
:105178005A6082226168520091420CD18021A26853
:1051880009028A4203D08021C9008A4203D1402102
:105198001A688A431A608021A26A89018A4206D164
:1051A80019680D480140196019680A431A602300FC
:1051B80001225D331A70002303205C34237005B08C
:1051C800F0BD039B5A1E93415B421D40039B013B6C
:1051D800B0E7C04604000020FFDFFFFFF0B50E0077
:1051E80085B015000400FEF745F8AD192D1AFEF735
:1051F80041F88027254B01901B685B011B0D6B4311
:10520800039322689368180038403B4232D0731CDD
:10521800F8D0FEF72FF8019BC01AA8422CD3E02142
:1052280023685A688A435A60822261685200914210
:105238000CD18021A26809028A4203D08021C900CA
:105248008A4203D140211A688A431A608021A26ADF
:1052580089018A4206D119680D4801401960196808
:105268000A431A60230001225D331A7000230320C9
:105278005C34237005B0F0BD039B5A1E93415B421A
:105288001D40039B013B0393BBE7C046040000207D
:10529800FFDFFFFF70B513000D0016000A00C021E4
:1052A80049010400FFF72EFF002805D02023226EB5
:1052B8000320134323660FE0320029002000FFF784
:1052C8008DFF0028F2D1C02133002A002000C90038
:1052D800FFF718FF0028E9D170BD0000F8B50400F9
:1052E8000120002C66D0636A002B64D18222616899
:1052F8005200914200D0E36100232500A3625D358E
:105308002B78DAB2002B05D123005C3320001A7009
:10531800FDF7B0FD022340212B702268E668136870
:105328008B43E0211360C90000238E4247D88020B8
:1053380040018E4200D0A36282218427636849001D
:105348000B40A1683F02394002270B432169A56938
:1053580039400B43012167690F403B438027BF0059
:105368002F403B43E76937310F403B43276A4831B9
:105378000F4080213B43A76A89010F403B43102718
:1053880008211360636A2D0C3B40676B0F403B4359
:10539800F0273F013E403343042635402B43034367
:1053A8005360D369084803400020D3610123206675
:1053B8005D342370F8BD0023236163619CE7F0210D
:1053C80018000901B5E7C046FFF7FFFFF0B51D005B
:1053D800030085B000915C3316001A780400022798
:1053E800012A00D185E001221A70FDF743FF23004E
:1053F80001905D331A78D7B2012A00D0A9E0009A4B
:10540800002A73D0002E71D003221A700023009A4C
:105418002366A263A21D2364A687E68702329387C8
:10542800D3878022A1682365E3641202236891422E
:1054380008D140211A688A431A6080221968D2016B
:105448000A431A6040221968114202D119680A43B6
:105458001A60E021E0686268C90088424CD9002AD5
:1054680001D0012E09D1009A1288DA60009B02331C
:10547800A363E38F013B9BB2E3870226E38F002BF4
:1054880019D129002000019AFFF704FF00285DD1F7
:10549800A368002B06D103932368DA6803929B68FC
:1054A8000393039B226E002A20D1230001215D3340
:1054B800170019701AE022689368334209D0A36B69
:1054C80019880233D160A363E38F013B9BB2E38762
:1054D800D4E7FDF7CFFE019BC01AA842CED36B1CC0
:1054E800CCD02300012203275D331A7000235C34DB
:1054F8002370380005B0F0BD002A01D0012E09D173
:10550800009A12781A73A36B0133A363E38F013BEC
:105518009BB2E3870226E38F002BB2D023689A68F8
:1055280032420AD0A26B12781A73A36B0133A363B9
:10553800E38F013B9BB2E387EDE7FDF79BFE019B01
:10554800C01AA842E7D36B1CE5D0CAE7202323661C
:105558009EE70227CAE70000F8B506005C363378F4
:1055680004000225012B57D00123337003005D335B
:105578001878C5B2012800D06BE000294AD0002A6B
:1055880048D0023018700023A2872366E287A21D44
:1055980023642365E364A16302329387D38780235E
:1055A800A06822681B02984208D1402013688343F0
:1055B800136080231068DB0103431360606D264B82
:1055C800264F0363264BC362264B43630023836342
:1055D80053683B405360E023E768DB009F420ED8E6
:1055E80080238769DB009F4209D1E38FDB0715D44D
:1055F80053681A4F3B405360E38F5B08E387E38FA0
:105608000C329BB2FEF7DEFA002810D01023226E6F
:1056180013432366002333702800F8BD802357689E
:10562800DB013B435360E38F5B080133E6E740222D
:1056380023681968114202D119680A431A602022A6
:10564800596800250A435A60022259680A435A6079
:10565800E0E70225DEE7C04675560008FFBFFFFFFA
:10566800A5560008815600087047704710B5806A33
:10567800FFF7FBFF10BD70470321806A10B5026871
:1056880053688B4353601023026E13430366030071
:1056980001225D331A70FFF7EEFF10BD37B5050024
:1056A800846AFDF7E7FD2B6820251B6802002B4262
:1056B80027D1022023685968A94359605968814352
:1056C800596020006421FFF7E5FD002802D0236E11
:1056D8001D432566A368002B06D101932368DA6869
:1056E80001929B680193019B0023E3872300012219
:1056F8005D331A70236E002B03D02000FFF7BBFF29
:1057080037BD2000FFF7B0FFFAE7000070B50124AD
:10571800036A026AA24302624468164A8569154010
:105728000A681543022293438A681343124A904237
:1057380005D0124EB04202D0114EB04213D1082605
:10574800B343CE6833430426B343904205D00B4A93
:10575800904202D00A4A904205D10A4A8E692240F4
:105768004C69344314434A68446085614263036268
:1057780070BDC0468CFFFEFF002C01400044014074
:1057880000480140FFFCFFFF70B5174A056A036A2D
:10579800134003624268154BC4691C400B681C43E4
:1057A800134B1D408B681B022B43124DA8420ED190
:1057B800114D1D40CB681B022B43104D2B40104D43
:1057C8004E6915408A69324312012A4305E00D4D9E
:1057D800A842F4D00C4DA842F1D042604A68C46196
:1057E800C263036270BDC046FFFEFFFF8CFFFEFF71
:1057F800FFFDFFFF002C0140FFF7FFFFFFFBFFFF4E
:10580800FFCFFFFF004401400048014030B5124A75
:10581800046A036A114D134003624368C2692A404F
:105828000D682D0215430E4A14408A68120322435C
:105838000C4CA04205D00C4CA04202D00B4CA0420C
:1058480004D10B4C1C404B699B01234343604B68BC
:10585800C5610364026230BDFFEFFFFFFF8CFFFEEE
:10586800FFDFFFFF002C01400044014000480140D9
:10587800FFBFFFFF70B5066A104C036A104A234049
:1058880003624368456D15400A6815430D4A164082
:105898008A68120432430C4EB04205D00B4EB04217
:1058A80002D00B4EB04203D11C404B691B0223436C
:1058B80043604B6845658365026270BDFFFFFEFF6C
:1058C8008FFFFEFFFFFFFDFF002C01400044014059
:1058D8000048014030B5124A046A036A114D13406A
:1058E80003624368426D2A400D682D0215430E4A33
:1058F80014408A68120522430C4CA04205D00C4C77
:10590800A04202D00B4CA04204D10B4C1C404B6966
:105918009B02234343604B684565C365026230BD03
:10592800FFFFEFFFFF8FFFFEFFFFDFFF002C0140AF
:105938000044014000480140FFFFFBFF70470000A2
:105948001C4A10B50368904202D01B4CA04208D1F3
:105958007024A3434C68234390420BD0164CA042BA
:1059680008D0164CA04205D0154CA04202D0154CC8
:10597800A04203D1144C1C40CB6823438024A3438A
:105988004C69234303608B68C3620B68836290424F
:1059980005D00B4B984202D00A4B984201D10B69B3
:1059A8000363012242610369134202D003699343EE
:1059B800036110BD002C014000040040002000409D
:1059C8000044014000480140FFFCFFFF70B504009F
:1059D8000120002C23D025003D352B78DAB2002B8E
:1059E80005D123003C3320001A70FDF78DFA0223FD
:1059F8002B702068211DFFF7A3FF22000123002040
:105A08004832137047340A3A137053709370D37046
:105A1800137153719371D371137223702B7070BD0E
:105A280070B504000120002C23D025003D352B78CB
:105A3800DAB2002B05D123003C3320001A70FFF79F
:105A48007DFF02232B702068211DFFF779FF2200BC
:105A5800012300204832137047340A3A13705370F8
:105A68009370D370137153719371D3711372237040
:105A78002B7070BD102270B5056A036A164C9343EB
:105A880003624368826922400C682402144320227E
:105A980095438A6812012A43104DA8420FD18025E8
:105AA800AA431600CA68403D12013243AA430C4D6E
:105AB8004E691D408B6933439B002B4305E0094D1C
:105AC800A842F4D0084DA842F1D043604B688461E5
